{
  "_format": "hh-sol-artifact-1",
  "contractName": "TicTacToe",
  "sourceName": "contracts/TicTacToe.sol",
  "abi": [
    {
      "anonymous": false,
      "inputs": [
        {
          "indexed": false,
          "internalType": "uint256",
          "name": "position",
          "type": "uint256"
        },
        {
          "indexed": false,
          "internalType": "uint256",
          "name": "player",
          "type": "uint256"
        }
      ],
      "name": "didAction",
      "type": "event"
    },
    {
      "anonymous": false,
      "inputs": [],
      "name": "draw",
      "type": "event"
    },
    {
      "anonymous": false,
      "inputs": [
        {
          "indexed": false,
          "internalType": "address",
          "name": "p1",
          "type": "address"
        }
      ],
      "name": "gameCreated",
      "type": "event"
    },
    {
      "anonymous": false,
      "inputs": [
        {
          "indexed": false,
          "internalType": "address",
          "name": "p2",
          "type": "address"
        }
      ],
      "name": "gameJoint",
      "type": "event"
    },
    {
      "anonymous": false,
      "inputs": [],
      "name": "winPlayer1",
      "type": "event"
    },
    {
      "anonymous": false,
      "inputs": [],
      "name": "winPlayer2",
      "type": "event"
    },
    {
      "inputs": [],
      "name": "joinGame",
      "outputs": [
        {
          "internalType": "address",
          "name": "",
          "type": "address"
        }
      ],
      "stateMutability": "payable",
      "type": "function"
    },
    {
      "inputs": [
        {
          "internalType": "uint256",
          "name": "position",
          "type": "uint256"
        }
      ],
      "name": "playerAction",
      "outputs": [],
      "stateMutability": "nonpayable",
      "type": "function"
    },
    {
      "inputs": [],
      "name": "test",
      "outputs": [
        {
          "internalType": "uint256",
          "name": "",
          "type": "uint256"
        }
      ],
      "stateMutability": "payable",
      "type": "function"
    }
  ],
  "bytecode": "0x6080604052600967ffffffffffffffff81111562000046577f4e487b7100000000000000000000000000000000000000000000000000000000600052604160045260246000fd5b604051908082528060200260200182016040528015620000755781602001602082028036833780820191505090505b50600090805190602001906200008d9291906200023f565b506000600460146101000a81548160ff02191690831515021790555060006005556040518061010001604052806040518060600160405280600060ff168152602001600160ff168152602001600260ff1681525081526020016040518060600160405280600360ff168152602001600460ff168152602001600560ff1681525081526020016040518060600160405280600660ff168152602001600760ff168152602001600860ff1681525081526020016040518060600160405280600060ff168152602001600360ff168152602001600660ff1681525081526020016040518060600160405280600160ff168152602001600460ff168152602001600760ff1681525081526020016040518060600160405280600260ff168152602001600560ff168152602001600860ff1681525081526020016040518060600160405280600060ff168152602001600460ff168152602001600860ff1681525081526020016040518060600160405280600260ff168152602001600460ff168152602001600660ff1681525081525060069060086200022a92919062000291565b503480156200023857600080fd5b50620003b4565b8280548282559060005260206000209081019282156200027e579160200282015b828111156200027d57825182559160200191906001019062000260565b5b5090506200028d9190620002f3565b5090565b828054828255906000526020600020908101928215620002e0579160200282015b82811115620002df57825182906003620002ce92919062000312565b5091602001919060010190620002b2565b5b509050620002ef919062000369565b5090565b5b808211156200030e576000816000905550600101620002f4565b5090565b82805482825590600052602060002090810192821562000356579160200282015b8281111562000355578251829060ff1690559160200191906001019062000333565b5b509050620003659190620002f3565b5090565b5b808211156200038d576000818162000383919062000391565b506001016200036a565b5090565b5080546000825590600052602060002090810190620003b19190620002f3565b50565b61118980620003c46000396000f3fe6080604052600436106100345760003560e01c8063d4f77b1c14610039578063dec09fd114610057578063f8a8fd6d14610080575b600080fd5b61004161009e565b60405161004e9190610d76565b60405180910390f35b34801561006357600080fd5b5061007e60048036038101906100799190610c71565b61022f565b005b610088610465565b6040516100959190610e4c565b60405180910390f35b6000600460149054906101000a900460ff166100ef576040517f08c379a00000000000000000000000000000000000000000000000000000000081526004016100e690610dec565b60405180910390fd5b33600460006101000a81548173ffffffffffffffffffffffffffffffffffffffff021916908373ffffffffffffffffffffffffffffffffffffffff160217905550600254600460009054906101000a900473ffffffffffffffffffffffffffffffffffffffff1673ffffffffffffffffffffffffffffffffffffffff163110156101ae576040517f08c379a00000000000000000000000000000000000000000000000000000000081526004016101a590610dac565b60405180910390fd5b7feff85e166f03b06aa4c346b80ab337dbb9bdb0cc28392bdadd044875d833df66600460009054906101000a900473ffffffffffffffffffffffffffffffffffffffff166040516101ff9190610d91565b60405180910390a1600460009054906101000a900473ffffffffffffffffffffffffffffffffffffffff16905090565b61023761046e565b610276576040517f08c379a000000000000000000000000000000000000000000000000000000000815260040161026d90610e0c565b60405180910390fd5b600081101580156102875750600981105b6102c6576040517f08c379a00000000000000000000000000000000000000000000000000000000081526004016102bd90610dcc565b60405180910390fd5b6000808281548110610301577f4e487b7100000000000000000000000000000000000000000000000000000000600052603260045260246000fd5b90600052602060002001541461034c576040517f08c379a000000000000000000000000000000000000000000000000000000000815260040161034390610e2c565b60405180910390fd5b6001600081548092919061035f90610ff7565b919050555060016005546103739190610ea1565b600082815481106103ad577f4e487b7100000000000000000000000000000000000000000000000000000000600052603260045260246000fd5b90600052602060002001819055507f0cac7f7c9ee98d51ed940b761773aef08439e637d5cdc5626acf47de06ab1492816005546040516103ee929190610e67565b60405180910390a160055460016104059190610f51565b6005819055506000610415610553565b9050600181141561042b5761042a600161095f565b5b600281141561043f5761043e600261095f565b5b60008114801561045157506009600154145b1561046157610460600061095f565b5b5050565b60006003905090565b6000806005541480156104cf5750600360009054906101000a900473ffffffffffffffffffffffffffffffffffffffff1673ffffffffffffffffffffffffffffffffffffffff163373ffffffffffffffffffffffffffffffffffffffff1614155b156104dd5760009050610550565b600160055414801561053d5750600460009054906101000a900473ffffffffffffffffffffffffffffffffffffffff1673ffffffffffffffffffffffffffffffffffffffff163373ffffffffffffffffffffffffffffffffffffffff1614155b1561054b5760009050610550565b600190505b90565b600080600090505b6008811015610956576000600682815481106105a0577f4e487b7100000000000000000000000000000000000000000000000000000000600052603260045260246000fd5b906000526020600020018054806020026020016040519081016040528092919081815260200182805480156105f457602002820191906000526020600020905b8154815260200190600101908083116105e0575b5050505050905060008082600081518110610638577f4e487b7100000000000000000000000000000000000000000000000000000000600052603260045260246000fd5b602002602001015181548110610677577f4e487b7100000000000000000000000000000000000000000000000000000000600052603260045260246000fd5b90600052602060002001541415801561079957506000816001815181106106c7577f4e487b7100000000000000000000000000000000000000000000000000000000600052603260045260246000fd5b602002602001015181548110610706577f4e487b7100000000000000000000000000000000000000000000000000000000600052603260045260246000fd5b906000526020600020015460008260008151811061074d577f4e487b7100000000000000000000000000000000000000000000000000000000600052603260045260246000fd5b60200260200101518154811061078c577f4e487b7100000000000000000000000000000000000000000000000000000000600052603260045260246000fd5b9060005260206000200154145b80156108ae57506000816002815181106107dc577f4e487b7100000000000000000000000000000000000000000000000000000000600052603260045260246000fd5b60200260200101518154811061081b577f4e487b7100000000000000000000000000000000000000000000000000000000600052603260045260246000fd5b9060005260206000200154600082600081518110610862577f4e487b7100000000000000000000000000000000000000000000000000000000600052603260045260246000fd5b6020026020010151815481106108a1577f4e487b7100000000000000000000000000000000000000000000000000000000600052603260045260246000fd5b9060005260206000200154145b15610942576000816000815181106108ef577f4e487b7100000000000000000000000000000000000000000000000000000000600052603260045260246000fd5b60200260200101518154811061092e577f4e487b7100000000000000000000000000000000000000000000000000000000600052603260045260246000fd5b90600052602060002001549250505061095c565b50808061094e90610ff7565b91505061055b565b50600090505b90565b6001811415610a0c57600360009054906101000a900473ffffffffffffffffffffffffffffffffffffffff1673ffffffffffffffffffffffffffffffffffffffff166108fc60025460026109b39190610ef7565b9081150290604051600060405180830381858888f193505050501580156109de573d6000803e3d6000fd5b507f93aaa5c78b1860029075b0feaa8e2fd691ef437e7a7646cf66a84f63ac30425560405160405180910390a15b6002811415610ab957600460009054906101000a900473ffffffffffffffffffffffffffffffffffffffff1673ffffffffffffffffffffffffffffffffffffffff166108fc6002546002610a609190610ef7565b9081150290604051600060405180830381858888f19350505050158015610a8b573d6000803e3d6000fd5b507feee91b1c26683691fb7aed9ac5ccb56b03cd1138c8773b1f5f2bd639a61e4fd660405160405180910390a15b6000811415610bc557600360009054906101000a900473ffffffffffffffffffffffffffffffffffffffff1673ffffffffffffffffffffffffffffffffffffffff166108fc6002549081150290604051600060405180830381858888f19350505050158015610b2c573d6000803e3d6000fd5b50600460009054906101000a900473ffffffffffffffffffffffffffffffffffffffff1673ffffffffffffffffffffffffffffffffffffffff166108fc6002549081150290604051600060405180830381858888f19350505050158015610b97573d6000803e3d6000fd5b507f0eecae21da931aca37ac5ad1fbc16cf915e1c214007f322f2fa146a0fa0b14d760405160405180910390a15b600060018190555060006002819055506000600460146101000a81548160ff02191690831515021790555060005b6009811015610c58576000808281548110610c37577f4e487b7100000000000000000000000000000000000000000000000000000000600052603260045260246000fd5b90600052602060002001819055508080610c5090610ff7565b915050610bf3565b5050565b600081359050610c6b8161113c565b92915050565b600060208284031215610c8357600080fd5b6000610c9184828501610c5c565b91505092915050565b610ca381610fc1565b82525050565b610cb281610f85565b82525050565b6000610cc5601e83610e90565b9150610cd08261106f565b602082019050919050565b6000610ce8601383610e90565b9150610cf382611098565b602082019050919050565b6000610d0b601883610e90565b9150610d16826110c1565b602082019050919050565b6000610d2e600f83610e90565b9150610d39826110ea565b602082019050919050565b6000610d51601183610e90565b9150610d5c82611113565b602082019050919050565b610d7081610fb7565b82525050565b6000602082019050610d8b6000830184610ca9565b92915050565b6000602082019050610da66000830184610c9a565b92915050565b60006020820190508181036000830152610dc581610cb8565b9050919050565b60006020820190508181036000830152610de581610cdb565b9050919050565b60006020820190508181036000830152610e0581610cfe565b9050919050565b60006020820190508181036000830152610e2581610d21565b9050919050565b60006020820190508181036000830152610e4581610d44565b9050919050565b6000602082019050610e616000830184610d67565b92915050565b6000604082019050610e7c6000830185610d67565b610e896020830184610d67565b9392505050565b600082825260208201905092915050565b6000610eac82610fb7565b9150610eb783610fb7565b9250827fffffffffffffffffffffffffffffffffffffffffffffffffffffffffffffffff03821115610eec57610eeb611040565b5b828201905092915050565b6000610f0282610fb7565b9150610f0d83610fb7565b9250817fffffffffffffffffffffffffffffffffffffffffffffffffffffffffffffffff0483118215151615610f4657610f45611040565b5b828202905092915050565b6000610f5c82610fb7565b9150610f6783610fb7565b925082821015610f7a57610f79611040565b5b828203905092915050565b6000610f9082610f97565b9050919050565b600073ffffffffffffffffffffffffffffffffffffffff82169050919050565b6000819050919050565b6000610fcc82610fd3565b9050919050565b6000610fde82610fe5565b9050919050565b6000610ff082610f97565b9050919050565b600061100282610fb7565b91507fffffffffffffffffffffffffffffffffffffffffffffffffffffffffffffffff82141561103557611034611040565b5b600182019050919050565b7f4e487b7100000000000000000000000000000000000000000000000000000000600052601160045260246000fd5b7f4e6f7420656e6f75676820746f6b656e20746f206a6f696e2067616d652e0000600082015250565b7f496e76616c696420706f736974696f6e2e2e2e00000000000000000000000000600082015250565b7f47616d65206973206e6f742063726561746564207965742e0000000000000000600082015250565b7f496e76616c6964207475726e2e2e2e0000000000000000000000000000000000600082015250565b7f416c726561647920706c616365642e2e2e000000000000000000000000000000600082015250565b61114581610fb7565b811461115057600080fd5b5056fea264697066735822122062f6266ef681f7a525f4d45f26ad8676c3645edada8582477bfb8577aaf72b5964736f6c63430008030033",
  "linkReferences": {},
  "deployedLinkReferences": {}
}